:100000000C942A000C9447000C9447000C94470071
:100010000C9447000C9447000C9447000C94470044
:100020000C9447000C9447000C9447000C94470034
:100030000C9447000C9447000C9447000C94470024
:100040000C9447000C9447000C9447000C94470014
:100050000C94470011241FBECFE5D8E0DEBFCDBF12
:1000600010E0A0E6B0E0E6EBFCE002C005900D92E7
:10007000A23AB107D9F710E0A2EAB0E001C01D92A0
:10008000A23AB107E1F70E9400010C9459060C94C2
:10009000000070E016161706ECF4E82FF92F80E048
:1000A00090E040E050E0A1919C01220F331F880FA7
:1000B000991F880F991F880F991F280F391F8A2FA2
:1000C00090E0C097820F931F4F5F5F4F461757070F
:1000D00054F3089580E090E00895EF92FF921F930B
:1000E000CF93DF93EC01162F7A010E94E1048F3F3A
:1000F000E1F3E3E2F4EF3197F1F700C00000982F4D
:1001000090539A3028F489930E94DF051F5FEDCF4A
:10011000F7018083CE01811B9109612F0E94490064
:10012000DF91CF911F91FF90EF9008956623C9F062
:10013000E82FF92F40E080E090E09C01220F331F70
:10014000880F991F880F991F880F991F280F391F33
:10015000819190E0C097820F931F4F5F461769F718
:10016000089580E090E008950F931F93CF93DF935D
:10017000EC0168EE73E00E943206862F805D0E94DB
:10018000DF05CE0164E670E00E943206CB010AE092
:1001900010E0B8010E943206805D0E94DF05CE01AA
:1001A000B8010E943206C82FCB01B8010E94320666
:1001B000805D0E94DF058C2F805D0E94DF05DF914E
:1001C000CF911F910F9108954B3221F49C01260F7E
:1001D000371F13C04D3221F49C01261B370B0DC075
:1001E000483741F4869F9001879F300D969F300DD0
:1001F000112403C00E9432069B01822F932F089581
:100200000F931F93CF93DF930E9471050E94C80440
:1002100080E690E00E9405068FE996E8A1E0815013
:100220009040A040E1F700C000000E941406C0E02A
:10023000D6E004E016E080E098E060E040E556E0BB
:100240000E946D0099838883809150060E94DF058B
:1002500080E097E060E044E556E00E946D00D80140
:1002600011969C938E93809154068D33B9F482E05D
:100270006DE00E941E066091040670910506809153
:10028000000690910106409150060E94E4000E94F1
:10029000B4000E94E1048F3FE1F31CC0813419F4E3
:1002A0000E941406C8CF0E9414068DE690E00E94BA
:1002B000050682E061E00E941E068DE790E00E9444
:1002C00005068FED93E9A4E081509040A040E1F74E
:1002D00000C000000E94140688E890E00E94050615
:1002E00080E090E0DF91CF911F910F9108958434C9
:1002F00009F471C0853448F4823499F1833408F0EC
:100300004DC0813409F083C00FC0823651F183366D
:1003100020F4813609F07BC007C0833609F43EC063
:10032000843609F074C057C0413069F42AB381E0C3
:1003300090E0AC0102C0440F551F6A95E2F7BA0184
:10034000622B6ABB08952AB381E090E0AC0102C041
:10035000440F551F6A95E2F7BA01609562236ABBA4
:100360000895413069F427B381E090E0AC0102C008
:10037000440F551F6A95E2F7BA01622B67BB0895D7
:1003800027B381E090E0AC0102C0440F551F6A958D
:10039000E2F7BA016095622367BB0895413069F4C2
:1003A00024B381E090E0AC0102C0440F551F6A9570
:1003B000E2F7BA01622B64BB089524B381E090E0B8
:1003C000AC0102C0440F551F6A95E2F7BA0160956F
:1003D000622364BB0895413069F421B381E090E069
:1003E000AC0102C0440F551F6A95E2F7BA01622BB7
:1003F00061BB089521B381E090E0AC0102C0440FDD
:10040000551F6A95E2F7BA016095622361BB0895B2
:10041000843409F471C0853448F4823499F183340A
:1004200008F04DC0813409F083C00FC0823651F10D
:10043000833620F4813609F07BC007C0833609F487
:100440003EC0843609F074C057C0413069F42BB304
:1004500081E090E0AC0102C0440F551F6A95E2F7BD
:10046000BA01622B6BBB08952BB381E090E0AC0125
:1004700002C0440F551F6A95E2F7BA0160956223E6
:100480006BBB0895413069F428B381E090E0AC0182
:1004900002C0440F551F6A95E2F7BA01622B68BB90
:1004A000089528B381E090E0AC0102C0440F551FCD
:1004B0006A95E2F7BA016095622368BB08954130FE
:1004C00069F425B381E090E0AC0102C0440F551FF0
:1004D0006A95E2F7BA01622B65BB089525B381E006
:1004E00090E0AC0102C0440F551F6A95E2F7BA01D3
:1004F0006095622365BB0895413069F422B381E0C1
:1005000090E0AC0102C0440F551F6A95E2F7BA01B2
:10051000622B62BB089522B381E090E0AC0102C07F
:10052000440F551F6A95E2F7BA016095622362BBDA
:100530000895843409F43DC0853440F48234F9F0E0
:10054000833450F5813409F040C00CC08236B9F0D4
:10055000833618F48136C9F505C08336E9F0843650
:10056000A1F527C02BB381E090E0AC0102C0440F9D
:10057000551F6A95E2F7BA0162276BBB089528B34D
:1005800081E090E0AC0102C0440F551F6A95E2F78C
:10059000BA01622768BB089525B381E090E0AC0101
:1005A00002C0440F551F6A95E2F7BA01622765BB86
:1005B000089522B381E090E0AC0102C0440F551FC2
:1005C0006A95E2F7BA01622762BB0895843409F4A0
:1005D0004EC0853440F4823431F18334B0F5813437
:1005E00009F057C00EC08236F1F0833620F4813610
:1005F00009F04FC006C0833641F1843609F049C086
:1006000036C029B381E090E0062E02C0880F991F02
:100610000A94E2F730E08223932302C095958795F0
:100620006A95E2F7089526B381E090E0062E02C0B5
:10063000880F991F0A94E2F730E08223932302C0C7
:10064000959587956A95E2F7089523B381E090E048
:10065000062E02C0880F991F0A94E2F730E0822329
:10066000932302C0959587956A95E2F7089520B384
:1006700081E090E0062E02C0880F991F0A94E2F7ED
:1006800030E08223932302C0959587956A95E2F71F
:10069000089508958434D9F0853438F4823499F07B
:1006A000833498F48134A1F40CC0823661F083362F
:1006B00018F4813669F405C0833639F0843641F484
:1006C00006C06ABB089567BB089564BB089561BB0B
:1006D00008958434D9F0853438F4823499F0833421
:1006E00098F48134A1F40CC0823661F0833618F49A
:1006F000813669F405C0833639F0843641F406C08A
:100700006BBB089568BB089565BB089562BB0895EF
:10071000843409F1853438F48234A9F08334B8F490
:100720008134E1F40CC0823671F0833618F48136DE
:10073000A9F405C0833659F0843681F40CC08BB31C
:1007400080958BBB089588B3809588BB089585B349
:10075000809585BB089582B3809582BB08958434CB
:10076000D9F0853438F4823499F0833498F48134A4
:10077000A9F40CC0823661F0833618F4813671F426
:1007800005C0833639F0843649F406C089B308952C
:1007900086B3089583B3089580B30895089562954C
:1007A000607F843451F1853438F48234C1F083346D
:1007B000E8F4813441F50CC0823689F0833618F4B0
:1007C000813609F505C0833689F08436E1F415C019
:1007D0008BB38F708BBB8BB3682B6BBB089588B3C7
:1007E0008F7088BB88B3682B68BB089585B38F7002
:1007F00085BB85B3682B65BB089582B38F7082BBC0
:1008000082B3682B62BB0895843451F1853438F487
:100810008234C1F08334E8F4813441F50CC082366F
:1008200089F0833618F4813609F505C0833689F0DE
:100830008436E1F415C08BB3807F8BBB8BB3682B00
:100840006BBB089588B3807F88BB88B3682B68BB77
:10085000089585B3807F85BB85B3682B65BB0895FC
:1008600082B3807F82BB82B3682B62BB08958434DD
:1008700009F471C0853448F4823499F1833408F066
:100880004DC0813409F083C00FC0823651F18336E8
:1008900020F4813609F07BC007C0833609F43EC0DE
:1008A000843609F074C057C0413069F42BB381E03D
:1008B00090E0AC0102C0440F551F6A95E2F7BA01FF
:1008C000622B6BBB08952BB381E090E0AC0102C0BA
:1008D000440F551F6A95E2F7BA01609562236BBB1E
:1008E0000895413069F428B381E090E0AC0102C082
:1008F000440F551F6A95E2F7BA01622B68BB089551
:1009000028B381E090E0AC0102C0440F551F6A9506
:10091000E2F7BA016095622368BB0895413069F43B
:1009200025B381E090E0AC0102C0440F551F6A95E9
:10093000E2F7BA01622B65BB089525B381E090E030
:10094000AC0102C0440F551F6A95E2F7BA016095E9
:10095000622365BB0895413069F422B381E090E0E1
:10096000AC0102C0440F551F6A95E2F7BA01622B31
:1009700062BB089522B381E090E0AC0102C0440F55
:10098000551F6A95E2F7BA016095622362BB08952C
:1009900083E46FE00E944A0383E467E041E00E9441
:1009A000370483E466E041E00E94370483E465E0B5
:1009B00041E00E94370483E464E041E00E94370490
:1009C00008950F931F93CF93DF93CDB7DEB7609752
:1009D0000FB6F894DEBF0FBECDBFDE011196E2E97F
:1009E000F0E080E101900D928150E1F700E083E4B6
:1009F0006FEF0E94040483E4602F40E00E9408022D
:100A000010E0612F6C5F83E40E94E602882361F4AA
:100A1000E02FF0E0EE0FFF1FEE0FFF1FE10FF11DC3
:100A2000EC0FFD1F818104C01F5F143051F70BC014
:100A300060960FB6F894DEBF0FBECDBFDF91CF91A9
:100A40001F910F9108950F5F043089F68FEFF0CF5B
:100A500082E490E060E070E041E050E00E94080233
:100A600083EF91E00197F1F700C0000082E490E08D
:100A700060E070E040E050E00E94080283EF91E007
:100A80000197F1F700C000000895CF93C82F682F99
:100A900062956F7081E490E070E00E94CF0382E481
:100AA00090E062E070E040E050E00E9408020E94A6
:100AB000280581E490E06C2F70E00E94CF0382E46F
:100AC00090E062E070E040E050E00E9408020E9486
:100AD000280589EF90E00197F1F700C00000CF9161
:100AE000089581E490E064E070E041E050E00E940D
:100AF000770181E490E065E070E041E050E00E9421
:100B0000770181E490E066E070E041E050E00E940F
:100B1000770181E490E067E070E041E050E00E94FE
:100B2000770182E490E060E070E041E050E00E94F4
:100B3000770182E490E062E070E041E050E00E94E2
:100B4000770182E490E061E070E041E050E00E94D3
:100B5000770182E490E061E070E040E050E00E94C4
:100B6000080282E00E94450583EC99E00197F1F7C5
:100B700000C0000088E20E94450589EF90E00197DF
:100B8000F1F700C000008EE00E94450589EF90E07B
:100B90000197F1F700C0000081E00E94450583EC59
:100BA00099E00197F1F700C0000086E00E9445053A
:100BB00089EF90E00197F1F700C000000895CF930E
:100BC000C82F682F62956F7081E490E070E00E94FA
:100BD000CF0382E490E062E070E041E050E00E94E8
:100BE00008020E94280581E490E06C2F70E00E94CA
:100BF000CF0382E490E062E070E041E050E00E94C8
:100C000008020E942805CF910895CF93DF93EC014D
:100C10008881882331F021960E94DF0589918823FD
:100C2000D9F7DF91CF91089581E00E94450583ECCB
:100C300099E00197F1F700C000000895813019F4A0
:100C4000862F815806C0823019F4862F815401C046
:100C500080E80E94450589EF90E00197F1F700C018
:100C60000000089597FB092E07260AD077FD04D0CF
:100C70000CD006D000201AF4709561957F4F08952E
:100C8000F6F7909581959F4F0895AA1BBB1B51E1E4
:100C900007C0AA1FBB1FA617B70710F0A61BB70BEC
:100CA000881F991F5A95A9F780959095BC01CD0191
:060CB0000895F894FFCF47
:100CB60048656C6C6F2C20576F726C64004F6E6CBD
:100CC600792032204F706572616E647300416C6CDE
:100CD6006F7765642021210042796520427965207D
:100CE60021003738392F343536783132332D4130BB
:020CF6003D2B94
:00000001FF
