:100000000C942A000C9447000C9447000C94470071
:100010000C9447000C9447000C9447000C94470044
:100020000C9447000C9447000C9447000C94470034
:100030000C9447000C9447000C9447000C94470024
:100040000C9447000C9447000C9447000C94470014
:100050000C94470011241FBECFE5D8E0DEBFCDBF12
:1000600010E0A0E6B0E0E6EEFCE002C005900D92E4
:10007000A23AB107D9F710E0A2EAB0E001C01D92A0
:10008000A23AB107E1F70E94C7000C9471060C94E4
:10009000000070E016161706ECF4E82FF92F80E048
:1000A00090E040E050E0A1919C01220F331F880FA7
:1000B000991F880F991F880F991F280F391F8A2FA2
:1000C00090E0C097820F931F4F5F5F4F461757070F
:1000D00054F3089580E090E008956623C9F0E82F76
:1000E000F92F40E080E090E09C01220F331F880F41
:1000F000991F880F991F880F991F280F391F819109
:1001000090E0C097820F931F4F5F461769F70895DD
:1001100080E090E00895CF93DF93EC0164E670E017
:100120000E944A06862F805D0E94F7052AE030E093
:10013000CE01B9010E944A06C82FCB01B9010E9425
:100140004A06805D0E94F7058C2F805D0E94F705AE
:10015000DF91CF9108954B3221F49C01260F371F78
:1001600013C04D3221F49C01261B370B0DC04837BC
:1001700041F4869F9001879F300D969F300D11248A
:1001800003C00E944A069B01822F932F08956F920D
:100190007F928F929F92AF92BF92DF92EF92FF92E7
:1001A0000F931F93CF93DF930E9489050E94E00471
:1001B00080E690E00E941D068FE996E8A1E081505C
:1001C0009040A040E1F700C000000E942C06D0E063
:1001D000DD2400E017E0EE24FF246894F3F80F2EEE
:1001E000F0E5AF2EF6E0BF2EF02D0F2E8824F6E0BE
:1001F0009F2EF02D0F2EF4E06F2EF6E07F2EF02DC7
:100200000E94F904C82F8F3FD9F3A3E2B4EF1197EE
:10021000F1F700C0000080538A3040F4F701C19329
:100220007F018C2F0E94F705D394EACFD501CC93A0
:10023000ED18F108C7016D2D0E944900F40191836A
:1002400080838C2F0E94F7050E94F904C82F8F3FEE
:10025000D9F383E294EF0197F1F700C000008C2FEF
:1002600080538A3040F4D801CD938D018C2F0E94A9
:10027000F705DF5FE9CF0D1B1109C8016D2F0E9443
:100280004900F30191838083CD33B9F482E06DE0BE
:100290000E94360660910406709105068091000662
:1002A00090910106409150060E94AB000E948B0085
:1002B0000E94F9048F3FE1F31CC0C13419F40E947D
:1002C0002C069ECF0E942C068DE690E00E941D0613
:1002D00082E061E00E9436068DE790E00E941D06F4
:1002E0008FED93E9A4E081509040A040E1F700C079
:1002F00000000E942C0688E890E00E941D0680E025
:1003000090E0DF91CF911F910F91FF90EF90DF90E0
:10031000BF90AF909F908F907F906F90089584349E
:1003200009F471C0853448F4823499F1833408F0BB
:100330004DC0813409F083C00FC0823651F183363D
:1003400020F4813609F07BC007C0833609F43EC033
:10035000843609F074C057C0413069F42AB381E093
:1003600090E0AC0102C0440F551F6A95E2F7BA0154
:10037000622B6ABB08952AB381E090E0AC0102C011
:10038000440F551F6A95E2F7BA01609562236ABB74
:100390000895413069F427B381E090E0AC0102C0D8
:1003A000440F551F6A95E2F7BA01622B67BB0895A7
:1003B00027B381E090E0AC0102C0440F551F6A955D
:1003C000E2F7BA016095622367BB0895413069F492
:1003D00024B381E090E0AC0102C0440F551F6A9540
:1003E000E2F7BA01622B64BB089524B381E090E088
:1003F000AC0102C0440F551F6A95E2F7BA0160953F
:10040000622364BB0895413069F421B381E090E038
:10041000AC0102C0440F551F6A95E2F7BA01622B86
:1004200061BB089521B381E090E0AC0102C0440FAC
:10043000551F6A95E2F7BA016095622361BB089582
:10044000843409F471C0853448F4823499F18334DA
:1004500008F04DC0813409F083C00FC0823651F1DD
:10046000833620F4813609F07BC007C0833609F457
:100470003EC0843609F074C057C0413069F42BB3D4
:1004800081E090E0AC0102C0440F551F6A95E2F78D
:10049000BA01622B6BBB08952BB381E090E0AC01F5
:1004A00002C0440F551F6A95E2F7BA0160956223B6
:1004B0006BBB0895413069F428B381E090E0AC0152
:1004C00002C0440F551F6A95E2F7BA01622B68BB60
:1004D000089528B381E090E0AC0102C0440F551F9D
:1004E0006A95E2F7BA016095622368BB08954130CE
:1004F00069F425B381E090E0AC0102C0440F551FC0
:100500006A95E2F7BA01622B65BB089525B381E0D5
:1005100090E0AC0102C0440F551F6A95E2F7BA01A2
:100520006095622365BB0895413069F422B381E090
:1005300090E0AC0102C0440F551F6A95E2F7BA0182
:10054000622B62BB089522B381E090E0AC0102C04F
:10055000440F551F6A95E2F7BA016095622362BBAA
:100560000895843409F43DC0853440F48234F9F0B0
:10057000833450F5813409F040C00CC08236B9F0A4
:10058000833618F48136C9F505C08336E9F0843620
:10059000A1F527C02BB381E090E0AC0102C0440F6D
:1005A000551F6A95E2F7BA0162276BBB089528B31D
:1005B00081E090E0AC0102C0440F551F6A95E2F75C
:1005C000BA01622768BB089525B381E090E0AC01D1
:1005D00002C0440F551F6A95E2F7BA01622765BB56
:1005E000089522B381E090E0AC0102C0440F551F92
:1005F0006A95E2F7BA01622762BB0895843409F470
:100600004EC0853440F4823431F18334B0F5813406
:1006100009F057C00EC08236F1F0833620F48136DF
:1006200009F04FC006C0833641F1843609F049C055
:1006300036C029B381E090E0062E02C0880F991FD2
:100640000A94E2F730E08223932302C095958795C0
:100650006A95E2F7089526B381E090E0062E02C085
:10066000880F991F0A94E2F730E08223932302C097
:10067000959587956A95E2F7089523B381E090E018
:10068000062E02C0880F991F0A94E2F730E08223F9
:10069000932302C0959587956A95E2F7089520B354
:1006A00081E090E0062E02C0880F991F0A94E2F7BD
:1006B00030E08223932302C0959587956A95E2F7EF
:1006C000089508958434D9F0853438F4823499F04B
:1006D000833498F48134A1F40CC0823661F08336FF
:1006E00018F4813669F405C0833639F0843641F454
:1006F00006C06ABB089567BB089564BB089561BBDB
:1007000008958434D9F0853438F4823499F08334F0
:1007100098F48134A1F40CC0823661F0833618F469
:10072000813669F405C0833639F0843641F406C059
:100730006BBB089568BB089565BB089562BB0895BF
:10074000843409F1853438F48234A9F08334B8F460
:100750008134E1F40CC0823671F0833618F48136AE
:10076000A9F405C0833659F0843681F40CC08BB3EC
:1007700080958BBB089588B3809588BB089585B319
:10078000809585BB089582B3809582BB089584349B
:10079000D9F0853438F4823499F0833498F4813474
:1007A000A9F40CC0823661F0833618F4813671F4F6
:1007B00005C0833639F0843649F406C089B30895FC
:1007C00086B3089583B3089580B30895089562951C
:1007D000607F843451F1853438F48234C1F083343D
:1007E000E8F4813441F50CC0823689F0833618F480
:1007F000813609F505C0833689F08436E1F415C0E9
:100800008BB38F708BBB8BB3682B6BBB089588B396
:100810008F7088BB88B3682B68BB089585B38F70D1
:1008200085BB85B3682B65BB089582B38F7082BB8F
:1008300082B3682B62BB0895843451F1853438F457
:100840008234C1F08334E8F4813441F50CC082363F
:1008500089F0833618F4813609F505C0833689F0AE
:100860008436E1F415C08BB3807F8BBB8BB3682BD0
:100870006BBB089588B3807F88BB88B3682B68BB47
:10088000089585B3807F85BB85B3682B65BB0895CC
:1008900082B3807F82BB82B3682B62BB08958434AD
:1008A00009F471C0853448F4823499F1833408F036
:1008B0004DC0813409F083C00FC0823651F18336B8
:1008C00020F4813609F07BC007C0833609F43EC0AE
:1008D000843609F074C057C0413069F42BB381E00D
:1008E00090E0AC0102C0440F551F6A95E2F7BA01CF
:1008F000622B6BBB08952BB381E090E0AC0102C08A
:10090000440F551F6A95E2F7BA01609562236BBBED
:100910000895413069F428B381E090E0AC0102C051
:10092000440F551F6A95E2F7BA01622B68BB089520
:1009300028B381E090E0AC0102C0440F551F6A95D6
:10094000E2F7BA016095622368BB0895413069F40B
:1009500025B381E090E0AC0102C0440F551F6A95B9
:10096000E2F7BA01622B65BB089525B381E090E000
:10097000AC0102C0440F551F6A95E2F7BA016095B9
:10098000622365BB0895413069F422B381E090E0B1
:10099000AC0102C0440F551F6A95E2F7BA01622B01
:1009A00062BB089522B381E090E0AC0102C0440F25
:1009B000551F6A95E2F7BA016095622362BB0895FC
:1009C00083E46FE00E94620383E467E041E00E94F9
:1009D0004F0483E466E041E00E944F0483E465E055
:1009E00041E00E944F0483E464E041E00E944F0430
:1009F00008950F931F93CF93DF93CDB7DEB7609722
:100A00000FB6F894DEBF0FBECDBFDE011196E2E94E
:100A1000F0E080E101900D928150E1F700E083E485
:100A20006FEF0E941C0483E4602F40E00E942002CC
:100A300010E0612F6C5F83E40E94FE02882361F462
:100A4000E02FF0E0EE0FFF1FEE0FFF1FE10FF11D93
:100A5000EC0FFD1F818104C01F5F143051F70BC0E4
:100A600060960FB6F894DEBF0FBECDBFDF91CF9179
:100A70001F910F9108950F5F043089F68FEFF0CF2B
:100A800082E490E060E070E041E050E00E942002EB
:100A900083EF91E00197F1F700C0000082E490E05D
:100AA00060E070E040E050E00E94200283EF91E0BF
:100AB0000197F1F700C000000895CF93C82F682F69
:100AC00062956F7081E490E070E00E94E70382E439
:100AD00090E062E070E040E050E00E9420020E945E
:100AE000400581E490E06C2F70E00E94E70382E40F
:100AF00090E062E070E040E050E00E9420020E943E
:100B0000400589EF90E00197F1F700C00000CF9118
:100B1000089581E490E064E070E041E050E00E94DC
:100B20008F0181E490E065E070E041E050E00E94D8
:100B30008F0181E490E066E070E041E050E00E94C7
:100B40008F0181E490E067E070E041E050E00E94B6
:100B50008F0182E490E060E070E041E050E00E94AC
:100B60008F0182E490E062E070E041E050E00E949A
:100B70008F0182E490E061E070E041E050E00E948B
:100B80008F0182E490E061E070E040E050E00E947C
:100B9000200282E00E945D0583EC99E00197F1F765
:100BA00000C0000088E20E945D0589EF90E0019797
:100BB000F1F700C000008EE00E945D0589EF90E033
:100BC0000197F1F700C0000081E00E945D0583EC11
:100BD00099E00197F1F700C0000086E00E945D05F2
:100BE00089EF90E00197F1F700C000000895CF93DE
:100BF000C82F682F62956F7081E490E070E00E94CA
:100C0000E70382E490E062E070E041E050E00E949F
:100C100020020E94400581E490E06C2F70E00E9469
:100C2000E70382E490E062E070E041E050E00E947F
:100C300020020E944005CF910895CF93DF93EC01ED
:100C40008881882331F021960E94F70589918823B5
:100C5000D9F7DF91CF91089581E00E945D0583EC83
:100C600099E00197F1F700C000000895813019F470
:100C7000862F815806C0823019F4862F815401C016
:100C800080E80E945D0589EF90E00197F1F700C0D0
:100C90000000089597FB092E07260AD077FD04D09F
:100CA0000CD006D000201AF4709561957F4F0895FE
:100CB000F6F7909581959F4F0895AA1BBB1B51E1B4
:100CC00007C0AA1FBB1FA617B70710F0A61BB70BBC
:100CD000881F991F5A95A9F780959095BC01CD0161
:060CE0000895F894FFCF17
:100CE60048656C6C6F2C20576F726C64004F6E6C8D
:100CF600792032204F706572616E647300416C6CAE
:100D06006F7765642021210042796520427965204C
:100D160021003738392F343536783132332D41308A
:020D26003D2B63
:00000001FF
